:100000000C945B020C9483020C9483020C94830284
:100010000C9483020C9483020C9483020C94C614F7
:100020000C9483020C9483020C9483020C9483023C
:100030000C9483020C9483020C9483020C9483022C
:100040000C947C140C9483020C9448150C94221587
:100050000C9483020C9483020C9483020C9483020C
:100060000C9483020C9483024E414E494E495459DC
:10007000494E46CDCCCC3D0AD7233C17B7D1387773
:10008000CC2B329595E6241FB14F0A000020410089
:1000900000C84200401C4620BCBE4CCA1B0E5AAED3
:1000A000C59D745344206361726420696E697469EC
:1000B000616C697A6564004572726F723A205344CC
:1000C000206361726420696E697469616C697A6128
:1000D00074696F6E206661696C656400233C636FB0
:1000E0006D6D616E643E205B617267756D656E74E7
:1000F000735D0A00496E70757420636F6D6D616E7B
:10010000642120282368656C7020666F7220686502
:100110006C7029004572726F723A205344206361FB
:100120007264206E6F7420696E697469616C697A9B
:1001300065640002506C61796261636B2066696E70
:10014000697368656400506C61796261636B2073E8
:10015000746F7070656400506C61796261636B20CC
:1001600073746F7070656400506C61796261636B69
:100170002073746F707065640050726573732061D2
:100180006E79206B657920746F2073746F702E2EDA
:100190002E00506C6179696E673A20004572726F6B
:1001A000723A2043616E6E6F74206F70656E2066C8
:1001B000696C65200043757272656E7420646972A3
:1001C0003A20004572726F723A204E6F742061209F
:1001D0006469726563746F7279202D2000457272B4
:1001E0006F723A204469726563746F7279206E6F22
:1001F0007420666F756E64202D20004572726F72D8
:100200003A2053442063617264206E6F7420696EDB
:10021000697469616C697A6564003D3D3D3D3D3DB1
:100220003D3D3D3D3D3D3D3D3D3D3D0A002062792A
:1002300074657309005B46494C455D09005B4449A0
:10024000525D09003D3D3D3D3D3D3D3D3D3D3D3D1A
:100250003D3D3D3D3D004C697374696E673A200039
:100260004572726F723A204E6F7420612064697219
:100270006563746F7279202D20004572726F723A37
:100280002043616E6E6F74206F70656E2000457242
:10029000726F723A2053442063617264206E6F74EF
:1002A00020696E697469616C697A6564004572726F
:1002B0006F723A20557365202320707265666978E5
:1002C00020666F7220636F6D6D616E64730045729E
:1002D000726F723A20556E6B6E6F776E20636F6D22
:1002E0006D616E64004572726F723A204D6973736E
:1002F000696E672066696C656E616D650043757235
:1003000072656E74206469723A20005468656E20CC
:10031000706173746520676F7420746578742074DD
:100320006F20746578742066696C650053656C6530
:100330006374206D6964692C207468656E20736530
:100340006C656374206368616E6E656C2C207468E4
:10035000656E2073656C6563742052617700536924
:1003600074653A2068747470733A2F2F7777772EFC
:1003700065787472616D61737465722E6E65742F29
:10038000746F6F6C732F6D696469546F417264751B
:10039000696E6F2F00706C6179203C66696C653EF8
:1003A000202D20706C6179206D656C6F64792066FA
:1003B000696C6500707764202D2073686F77206307
:1003C000757272656E7420646972006364205B707C
:1003D0006174685D202D206368616E6765206469C3
:1003E00072006C73205B706174685D202D206C69F5
:1003F00073742066696C657300636F6E76657274E2
:10040000202D207369746520616E6420696E737499
:1004100072756374696F6E7320746F20636F6E768C
:10042000657274206D6964690068656C70202D20A8
:1004300074686973206D6573736167650048656CE6
:10044000700A3D3D3D3D3D3D3D3D3D3D3D3D3D3DDC
:100450003D3D3D00000000080002010000030407CC
:1004600000000000000000007C3C3E5E2B3D3F2F62
:100470005B5D3B2C2A225C00000000002500280068
:100480002B0000000000240027002A0004040404BC
:10049000040404040202020202020303030303032E
:1004A000010204081020408001020408102001020B
:1004B000040810207A1511241FBECFEFD8E0DEBF4C
:1004C000CDBF24E0ACECB1E001C01D92A13EB2076B
:1004D000E1F711E0A0E0B1E0EEEFF9E402C0059031
:1004E0000D92AC3CB107D9F712E0CBE5D2E004C0E5
:1004F0002197FE010E943A20CA35D107C9F70E9410
:10050000C2150C94FD240C94000090E0FC01E05610
:10051000FB4F249184579B4FFC018491882399F0D1
:1005200090E0880F991FFC01EE57FB4FA591B49105
:10053000FC01E858FB4F859194918FB7F894EC91AA
:10054000E22BEC938FBF089590E0FC01EC5AFB4F37
:100550002491FC01E056FB4F3491FC01E457FB4F22
:10056000E491EE23C9F0222339F0233001F1A8F4FD
:10057000213019F1223029F1F0E0EE0FFF1FE85889
:10058000FB4FA591B4918FB7F894EC91611126C0FF
:1005900030953E233C938FBF08952730A9F0283033
:1005A000C9F0243049F7809180008F7D03C080918D
:1005B00080008F7780938000DFCF84B58F7784BDF4
:1005C000DBCF84B58F7DFBCF8091B0008F77809398
:1005D000B000D2CF8091B0008F7DF9CF3E2BDACF23
:1005E0003FB7F8948091EA019091EB01A091EC0162
:1005F000B091ED0126B5A89B05C02F3F19F00196DB
:10060000A11DB11D3FBFBA2FA92F982F8827BC016C
:10061000CD01620F711D811D911D42E0660F771F94
:10062000881F991F4A95D1F708958F929F92AF9294
:10063000BF92CF92DF92EF92FF920E94F0024B01A5
:100640005C018AE0C82ED12CE12CF12C0E94F00232
:10065000681979098A099B09683E734081059105EB
:10066000A8F321E0C21AD108E108F10888EE880E4B
:1006700083E0981EA11CB11CC114D104E104F10453
:1006800029F7FF90EF90DF90CF90BF90AF909F90B1
:100690008F9008952FB7F8946091E6017091E7016B
:1006A0008091E8019091E9012FBF08958F929F9268
:1006B000AF92BF92EF92FF920F931F93CF93DF936E
:1006C000EC017B0110E000E00E944A036887798713
:1006D0008A879B87E881F9810284F385E02DCE012A
:1006E000099597FF1FC00E944A0388849984AA84B1
:1006F000BB84681979098A099B098C809D80AE802A
:10070000BF80681579058A059B0520F3C801DF9134
:10071000CF911F910F91FF90EF90BF90AF909F905E
:100720008F9008958A30910589F3F70181937F01B5
:100730000F5F1F4F0F37110539F6E8CF9091000179
:1007400089130BC0E3E3F1E0E4919FEF9093000184
:10075000E13049F028F0E23061F060E00C94A4024E
:1007600010926E00FACF90916F009D7F90936F0072
:10077000F4CF909170009D7F9093700091E09093E2
:10078000B0009091B100987F94609093B100109266
:10079000B300E3CFAF92BF92CF92DF92EF92FF927E
:1007A0000F931F93CF93DF936C017B018B01040F99
:1007B000151FEB015E01AE18BF08C017D10759F035
:1007C0006991D601ED91FC910190F081E02DC60177
:1007D0000995892B79F7C501DF91CF911F910F9171
:1007E000FF90EF90DF90CF90BF90AF900895FC0105
:1007F000538D448D252F30E0842F90E0821B930B86
:10080000541710F0CF96089501970895FC01918D2B
:10081000828D981761F0A28DAE0FBF2FB11D5D962E
:100820008C91928D9F5F9F73928F90E008958FEFD0
:100830009FEF0895FC01918D828D981731F0828D84
:10084000E80FF11D858D90E008958FEF9FEF0895DB
:10085000FC01918D228D892F90E0805C9F4F821B3F
:1008600091098F739927089581EF93E00E942804DE
:1008700021E0892B09F420E0822F089580E090E0A8
:10088000892B29F00E94340481110C9400000895F2
:10089000FC01A48DA80FB92FB11DA35ABF4F2C91F5
:1008A000848D90E001968F739927848FA689B789EC
:1008B0002C93A089B1898C91837080648C93938DE3
:1008C000848D981306C00288F389E02D80818F7D86
:1008D00080830895EF92FF920F931F93CF93DF933E
:1008E000EC0181E0888F9B8D8C8D98131AC0E8896C
:1008F000F989808185FF15C09FB7F894EE89FF893B
:100900006083E889F98980818370806480839FBFD8
:1009100081E090E0DF91CF911F910F91FF90EF90D8
:100920000895F62E0B8D10E00F5F1F4F0F731127E8
:10093000E02E8C8D8E110CC00FB607FCFACFE88923
:10094000F989808185FFF5CFCE010E944804F1CF5F
:10095000EB8DEC0FFD2FF11DE35AFF4FF0829FB797
:10096000F8940B8FEA89FB8980818062CFCF0F9347
:100970001F93CF93DF938C01D0E0C0E0F801EC0F20
:10098000FD1F6491662341F081EF93E00E946A04A9
:10099000892B11F02196F2CFCE01DF91CF911F91DB
:1009A0000F910895CF93DF93EC01888D8823B9F0E0
:1009B000AA89BB89E889F9898C9185FD03C080816A
:1009C00086FD0DC00FB607FCF7CF8C9185FFF2CFE7
:1009D000808185FFEDCFCE010E944804E9CFDF91F1
:1009E000CF9108958FB7F8948091CD018FBF08956E
:1009F00061E0FC0184810E94A4028091CC018111FC
:100A00001092CC0108958EBD00000DB407FEFDCFFD
:100A10008EB508958FEF0C9403050F931F93CF931A
:100A2000DF93EC010E944A038B010E940A058F3F6D
:100A300069F00E944A03601B710B6C177D07A8F3D5
:100A400080E0DF91CF911F910F91089581E0F9CF60
:100A50008CBD9DBD0895CF93DF93EC018091CC01B7
:100A6000811109C081E08093CC0180918E04909126
:100A70008F040E94280560E08C81DF91CF910C9457
:100A8000A4028F929F92AF92BF92FF920F931F93F7
:100A9000CF93DF93EC01F62E49015A018E81882312
:100AA00089F08F8198859C012F5F3F4F38872F8376
:100AB0008230924018F40E940A05F3CFCE010E94C2
:100AC000F8041E82CE010E942B058CE291E00E9468
:100AD0000D058F2D80640E94030508E110E0D5010B
:100AE000C401002E04C0B695A795979587950A94E2
:100AF000D2F70E94030508501109083F8FEF18072D
:100B000071F785E9FF2021F028E087E8F2128FEFE6
:100B10000E94030510E00E940A058A8787FF04C02F
:100B20001F3F11F01F5FF7CFDF91CF911F910F9102
:100B3000FF90BF90AF909F908F900895AF92BF921B
:100B4000CF92DF92EF92FF920F931F93CF93DF9399
:100B5000EC016901C801820F931F8130924050F56A
:100B60008E81882379F088819981AA81BB8184173D
:100B70009507A607B70731F48F819885C816D9065F
:100B800008F042C0488359836A837B838B85833016
:100B900039F089E0440F551F661F771F8A95D1F7FA
:100BA0009A01AB0161E1CE010E944105882389F0E1
:100BB00083E08D83CE010E94F80480E0DF91CF9125
:100BC0001F910F91FF90EF90DF90CF90BF90AF906B
:100BD00008950E944A035B010E940A058A878F3F9D
:100BE00069F40E944A036A197B096D327140A0F3CF
:100BF0008FE08D83CE010E94F804DCCF8E3F89F414
:100C000018861F8281E08E838F8198858C159D05C3
:100C100050F40E940A058F819885019698878F83EA
:100C2000F3CF8DE0E6CF6701E00EF11E0E940A05CA
:100C3000F60181936F01EE15FF05C1F78F8198854D
:100C4000080F191F18870F838985882319F001154C
:100C50001240A0F08E81882389F08F8198859C01B5
:100C60002F5F3F4F38872F838230924018F40E94C5
:100C70000A05F3CFCE010E94F8041E8281E09ECFC8
:100C8000CF92DF92EF92FF920F93CF93DF93EC011D
:100C9000690182E1411551056105710599F08B8566
:100CA000833039F089E0440F551F661F771F8A95FE
:100CB000D1F79A01AB0168E1CE010E94410588237A
:100CC00019F084E08D832DC08EEF0E94030576011C
:100CD0008EEFD81AF70181917F010E940305EC1471
:100CE000FD04C1F78FEF0E9403058FEF0E940305FB
:100CF0000E940A058A878F71853071F4011116C030
:100D0000CE010E94F80481E0DF91CF910F91FF9016
:100D1000EF90DF90CF90089581E18D83CE010E9406
:100D2000F804CE010E94F80480E0EECF88E592E05E
:100D30000E940D05811102C085E1C4CF20E030E0A2
:100D4000A9016DE0CE010E944105882311F084E1E4
:100D5000B9CF0E940A058111FACFD2CF0F934091EB
:100D6000CE015091CF016091D0017091D101411518
:100D700051056105710599F0082F2FEE31E0809142
:100D8000EF039091F0030E944006882349F01092EF
:100D9000CE011092CF011092D0011092D10181E0CA
:100DA0000F9108950F93CF93C82F8091EE01811179
:100DB00005C0C1E08C2FCF910F910895409165013E
:100DC0005091660160916701709168010C2F2FEEC0
:100DD00031E08091EF039091F0030E944006811171
:100DE00002C0C0E0E7CFCC2321F381E00E94AE0631
:100DF0008823B9F31092EE01DDCF8F929F92AF92CC
:100E0000BF92EF92FF920F931F93CF934B015C0120
:100E1000C42F8091650190916601A0916701B09106
:100E2000680188159905AA05BB0551F181E00E946A
:100E3000D20681110BC080E0CF911F910F91FF90DE
:100E4000EF90BF90AF909F908F9008958FEEE82E17
:100E500081E0F82E00E012E030E020E0B501A401CE
:100E60008091EF039091F0030E949E05882319F36F
:100E70008092650190926601A0926701B09268012C
:100E80004091EE014C2B4093EE0181E0D5CF8F9243
:100E90009F92AF92BF92CF92DF92EF92FF92CF9349
:100EA00020E934E03093F0032093EF03882309F422
:100EB0006DC040E060E070E0CB010E94FD06811152
:100EC0000BC080E0CF91FF90EF90DF90CF90BF906C
:100ED000AF909F908F9008958091AD038F7789F7A1
:100EE0008091B9039091BA03A091BB03B091BC0368
:100EF00084369105A105B10520F3C090B503D090CB
:100F0000B603E090B703F090B803C114D104E10434
:100F1000F104B9F240E0C701B6010E94FD06882342
:100F200081F28091FA019091FB018115924049F67E
:100F3000A091FF01AA2329F26091FD017091FE01A9
:100F40006115710509F4BDCF2091FC01222309F43C
:100F5000B8CFA093AE042093A00490E080E030E0EE
:100F6000E1E0F0E0C82FAF01082E02C0440F551F8A
:100F70000A94E2F72417350769F041E0480F01961B
:100F80008930910579F74093A9049BCFC12CD12CCE
:100F90007601C0CF8093A90420910502309106020A
:100FA00050E040E02115310541F4209113023091C9
:100FB000140240911502509116022093A10430931F
:100FC000A2044093A3045093A40446015701860E43
:100FD000971EA11CB11C8092AF049092B004A09205
:100FE000B104B092B204E0910002F0910102F093DA
:100FF000B504E093B404B0E00E94A81FDC01CB016B
:10100000880D991DAA1DBB1D8093B6049093B7044B
:10101000A093B804B093B90425E0EE0FFF1F2A9502
:10102000E1F7E150FE4FEF2FFF27E6958E0F9F1F50
:10103000A11DB11D8093AA049093AB04A093AC04AE
:10104000B093AD048090020290900302B12CA12CC9
:101050008114910441F480900F0290901002A090AE
:101060001102B0901202C81AD90AEA0AFB0AC80C87
:10107000D91CEA1CFB1C04C0F694E794D794C794CF
:10108000CA95D2F7C092A504D092A604E092A70414
:10109000F092A80485EFC8168FE0D806E104F104A9
:1010A00028F48CE08093B30481E00CCF80E125EF3D
:1010B000C2162FEFD206E104F104A0F380911B02C7
:1010C00090911C02A0911D02B0911E028093B60463
:1010D0009093B704A093B804B093B90480E2E2CF30
:1010E0004F925F926F927F928F929F92AF92BF9238
:1010F000CF92DF92EF92FF920F931F93CF93DF93E4
:10110000EC01423051056105710590F480E0DF91FA
:10111000CF911F910F91FF90EF90DF90CF90BF90F4
:10112000AF909F908F907F906F905F904F900895B9
:1011300089859A85AB85BC850196A11DB11D841753
:101140009507A607B70710F3CB88DC88ED88FE88E3
:101150008F89803109F042C0BB27A72F962F852F9A
:10116000480159012A013B01C80ED91EEA1EFB1E87
:101170008091650190916601A0916701B09168012D
:10118000C816D906EA06FB0699F58F898031C1F5A4
:10119000B301A201552766277727440F551F4151F8
:1011A0005E4FFA01918280828091EE01816080938E
:1011B000EE018A89823080F08D819E81AF81B88571
:1011C0008C0D9D1DAE1DBF1D8093CE019093CF0150
:1011D000A093D001B093D10181E099CFDB01CA0186
:1011E000E7E0B695A79597958795EA95D1F7B8CF9B
:1011F00040E0C701B6010E94FD068111C6CF86CF2F
:10120000B301A2014F77552766277727440F551F53
:10121000440F551F41515E4FFA0180829182A28294
:10122000B382C2CF8F929F92AF92BF92CF92DF9242
:10123000EF92FF920F931F93CF93DF93FC01818571
:101240009285A385B4850196A11DB11D84179507CC
:10125000A607B70770F480E0DF91CF911F910F913F
:10126000FF90EF90DF90CF90BF90AF909F908F90C6
:10127000089583889488A588B6888789803189F500
:10128000BB27A72F962F852FE9016A017B018F01CC
:10129000BC01CD01680D791D8A1D9B1D80906501E3
:1012A00090906601A0906701B0906801861697063D
:1012B000A806B90601F5F8018789803111F5DD240A
:1012C000EE24FF24F601EE0FFF1FE151FE4F808157
:1012D0009181B0E0A0E088839983AA83BB8381E0F9
:1012E000BBCFDB01CA01C7E0B695A7959795879557
:1012F000CA95D1F7C9CF40E00E94FD068111DBCF2E
:10130000AACFE894C7F8DD24EE24FF24F601EE0FFF
:10131000FF1FEE0FFF1FE151FE4F80819181A281DF
:10132000B381BF70D8CF4F925F926F927F92AF928E
:10133000BF92CF92DF92EF92FF920F931F93CF93C2
:10134000DF9300D000D0CDB7DEB78C0149835A833C
:101350006B837C835901C12CD12C7601412C82E016
:10136000582E612C712C49815A816B817C819E01A0
:101370002F5F3F4FC8010E941209882339F1F801FD
:101380008585A301920104C0220F331F441F551FFE
:101390008A95D2F7DA01C901C80ED91EEA1EFB1ED2
:1013A00049815A816B817C818789803111F188EF75
:1013B0009FEFAFEFBFE0481759076A077B0798F226
:1013C000F501C082D182E282F38281E00F900F901A
:1013D0000F900F90DF91CF911F910F91FF90EF90A1
:1013E000DF90CF90BF90AF907F906F905F904F90C5
:1013F000089588EF9FEFA0E0B0E0DDCFCF93DF93BB
:10140000FC012581222321F080E0DF91CF91089516
:10141000EC018091B304803159F582E08583178A0D
:10142000108E118E128E8091B4049091B504B0E0AC
:10143000A0E025E0880F991FAA1FBB1F2A95D1F7AE
:10144000838B948BA58BB68B8CE994E09C8F8B8FD0
:1014500081E08C831E821F82188619861A861B865D
:101460001C861D861E861F86188A198A1A8ACDCF69
:10147000803251F683E085834091B6045091B704E1
:101480006091B8047091B904478B508F618F728F4F
:101490009F012D5E3F4F8CE994E00E9493098111DA
:1014A000D3CFB2CF8F929F92AF92BF92CF92DF9263
:1014B000EF92FF920F931F93CF93DF93EC018D81F7
:1014C00081110EC080E0DF91CF911F910F91FF90AD
:1014D000EF90DF90CF90BF90AF909F908F90089546
:1014E0000B891C892D893E890417150726073707A4
:1014F00048F34A015B01823031F48A869B86AC86D0
:10150000BD8681E0E0CF81149104A104B10449F4C7
:101510001E821F82188619861A861B861C861D86C7
:10152000F0CF0A851B852C853D85EB8DFC8D85854F
:1015300090E00996B901A80141505109610971096A
:10154000082E04C076956795579547950A94D2F76B
:1015500075016401E1E0CE1AD108E108F10804C088
:10156000F694E794D794C7948A95D2F7C416D50613
:10157000E606F70620F0012B022B032B11F58F89CD
:10158000988DA98DBA8D8E839F83A887B9878E0188
:101590000A5F1F4FC114D104E104F10409F4ADCF77
:1015A0004E815F816885798598018B8D9C8D0E9425
:1015B000120991E0C91AD108E108F1088111EACFB6
:1015C00081CFC41AD50AE60AF70AE1CF3F924F92BB
:1015D0005F926F927F928F929F92AF92BF92CF92C3
:1015E000DF92EF92FF920F931F93CF93DF93CDB7CC
:1015F000DEB72C970FB6F894DEBF0FBECDBF5C01EF
:10160000DC015B968D909C905C9716964D905D905A
:101610006D907C901997411451046104710409F490
:1016200068C0BFEF4B1A5B0A6B0A7B0A312CF401CE
:1016300081859285A385B4859C01AD012F5F3F4FC5
:101640004F4F5F4F29873A874B875C877301620151
:101650001D821E821F821886F40181859285A385D2
:10166000B4852D813E814F815885281739074A0757
:101670005B0708F056C089859A85AB85BC858C15BB
:101680009D05AE05BF0550F482E0C82ED12CE12C9B
:10169000F12C92E0492E512C612C712C9E012F5F70
:1016A0003F4FB701A601C4010E9412098823C9F166
:1016B00089819A81AB81BC81892B8A2B8B2B09F183
:1016C000260137019FEF491A590A690A790A2D81C3
:1016D0003E814F8158852F5F3F4F4F4F5F4F2D8386
:1016E0003E834F8358873FEFC31AD30AE30AF30AB6
:1016F000B3CFF401408051806280738033243394EF
:1017000096CFC414D504E604F70409F70FEF1FEFD2
:101710002FEF3FE0B701A601C4010E9470088111BC
:1017200019C080E02C960FB6F894DEBF0FBECDBF77
:10173000DF91CF911F910F91FF90EF90DF90CF90AD
:10174000BF90AF909F908F907F906F905F904F90E1
:101750003F900895D50116964D915D916D917C91C4
:101760001997411551056105710539F097018601F9
:10177000C4010E9470088823A1F2D5011696CD926B
:10178000DD92ED92FC921997332051F0D701C601FA
:101790000196A11DB11DF40180839183A283B383BF
:1017A000F5018789908DA18DB28D892B8A2B8B2B8A
:1017B00039F48481C78AD08EE18EF28E806884836A
:1017C000F50184818062848381E0ACCF2F923F92C7
:1017D0004F925F926F927F928F929F92AF92BF9241
:1017E000CF92DF92EF92FF920F931F93CF93DF93ED
:1017F000EC015B012A018D81811115C08FEF9FEFF4
:10180000DF91CF911F910F91FF90EF90DF90CF90DC
:10181000BF90AF909F908F907F906F905F904F9010
:101820003F902F9008958C8180FFE8CF0B891C8911
:101830002D893E894A855B856C857D85C201B0E036
:10184000A0E068017901C41AD50AE60AF70AC816A9
:10185000D906EA06FB0618F42801441A550A420183
:101860001E0126E0220E311C8114910409F4B3C03C
:101870004A855B856C857D856A0181E0D8228B8DE8
:101880009C8D8A019B01E9E0369527951795079570
:10189000EA95D1F7ED81E230E1F5FC01628D738DBF
:1018A000848D958D600F711F821F931F612C22E024
:1018B000722E6C187D088614970408F434012C816C
:1018C00026FD04C06114F2E07F0671F40091650109
:1018D0001091660120916701309168010617170782
:1018E0002807390709F053C040E00E94FD0688230D
:1018F00009F484CFC60181519E4FD5019C01260D6C
:10190000371DFC012E173F0709F460C041914D932C
:10191000F9CFFC0174807A947022C114D10471F45F
:1019200071100CC0452B462B472B39F58F89988DAC
:10193000A98DBA8D8E839F83A887B987EB8DFC8D87
:101940006E817F818885998562507109810991092D
:10195000258504C0660F771F881F991F2A95D2F727
:101960000685178520893189600F711F821F931F9B
:10197000670D711D811D911D99CF4E815F81688515
:10198000798591010E9412098111D8CF37CF750155
:1019900083019601AB01BC018091EF039091F003AC
:1019A0000E949E05882309F429CFA60CB71C8A85BE
:1019B0009B85AC85BD85860D971DA11DB11D8A87B0
:1019C0009B87AC87BD87861897084ECF281B390B9D
:1019D000A20EB31EECCFC20113CF1F93CF93DF93A0
:1019E000FC0125812223D1F1162FEC01848187FF90
:1019F0002AC0668577858089918941E00E94FD062D
:101A0000882361F1EA8980E2E89FF0011124E15125
:101A1000FE4F309719F18D81823040F48B899C897B
:101A2000AD89BE89848F958FA68FB78F8F89988D4A
:101A3000938F828F8F89988DA98DBA8DB58BA48B4A
:101A40008C818F778C83111103C08C818F7E8C8366
:101A5000812FDF91CF911F910C94D20680E0DF910E
:101A6000CF911F910895FF920F931F93CF93DF9310
:101A7000EC018D81813041F090E080E0DF91CF91E9
:101A80001F910F91FF9008958C8181FFF5CF82FD0A
:101A90001BC00091EF031091F003C8010E942B05B9
:101AA0000E940A05F82EC8010E94F8048FEFF81270
:101AB000E3CF8C8185FF1BC060E0CE010E94ED0C5E
:101AC0008C818F7D8C83D8CF4B895C896D897E8991
:101AD0008A859B85AC85BD8584179507A607B707C2
:101AE000C1F2CE010E94520A8111D3CFC5CF4091DD
:101AF000CE015091CF016091D0017091D101452B61
:101B0000462B472B21F080E00E94AE06B5CF8061C6
:101B10008C832A853B85317080E092E0821B930B99
:101B2000ADCFCF93DF93EC0161E00E94ED0C8823F1
:101B300011F01D8281E0DF91CF9108952F923F92A5
:101B40004F925F926F927F928F929F92AF92BF92CD
:101B5000CF92DF92EF92FF920F931F93CF93DF9379
:101B600000D000D01F92CDB7DEB77C015B01342ED0
:101B70005D83DC0115968C911597813009F0CEC0FC
:101B800014962C9021FECAC022FCB4C0C32CDD8068
:101B900022947FE027222094B22DB1702B2ED70102
:101BA0001A964D915D916D917C911D97C114D10450
:101BB00009F428C15B968D919C915C97FC0174801F
:101BC0007A948A019B0169E03695279517950795C8
:101BD0006A95D1F770228A011170711020C0011529
:101BE0001105E9F416964D915D916D917C911997CF
:101BF000411551056105710509F099C057968D9100
:101C00009D910D90BC91A02D0097A105B10509F003
:101C1000B0C0C7010E94E60A882309F47FC080E0B3
:101C200092E0801B910B46018C159D0508F44C0138
:101C3000D7015B964D915C915C9716968D919D9125
:101C40000D90BC91A02D0297A109B109FA0125853B
:101C500004C0880F991FAA1FBB1F2A95D2F746857B
:101C6000578560897189840F951FA61FB71F9C0136
:101C7000AD01270D311D411D511D29013A0181146E
:101C800032E0930609F07BC0809165019091660176
:101C9000A0916701B091680184159505A605B70567
:101CA00059F48FEF9FEFDC018093650190936601FB
:101CB000A0936701B0936801022D9501B301A201C1
:101CC0008091EF039091F0030E944006882331F148
:101CD0009EEFB91AC818D908F70182859385A485A3
:101CE000B585880D991DA11DB11D82879387A48795
:101CF000B58755CFF70143895489658976898285EF
:101D00009385A485B585481759076A077B0709F4A9
:101D10003DCFC7010E94520A811138CF81E090E087
:101D2000D70113969C938E93129780E007C09E0173
:101D30002F5F3F4F0E941209811102C090E079C0CD
:101D400089819A81AB81BC81F701238D348DF901A2
:101D5000278948EF5FEF60E070E0203121F048EF25
:101D60005FEF6FEF7FE084179507A607B70708F0CE
:101D700050CFF70186839783A087B18750CF011595
:101D8000110599F5D7011A964D915D916D917C9150
:101D90001D9753968D919D910D90BC91A02D481744
:101DA00059076A077B0708F181E00E94D206882361
:101DB00009F4B4CF409265015092660160926701C8
:101DC000709268018091EE0181608093EE01C801FC
:101DD00081519E4FD5019C01280D391DFC012E1704
:101DE0003F0759F04D914193FACF41E0C301B20151
:101DF0000E94FD068111EBCF91CF281B390BA20E5B
:101E0000B31E68CFF70183899489A589B6898417A1
:101E10009507A607B70738F48481438B548B658BED
:101E2000768B80688483F701848183FD1AC0832DBB
:101E30009D810F900F900F900F900F90DF91CF9199
:101E40001F910F91FF90EF90DF90CF90BF90AF90D8
:101E50009F908F907F906F905F904F903F902F90CA
:101E6000089561E0C7010E94ED0C882309F456CF64
:101E7000DECFCF93DF931F92CDB7DEB7698341E00A
:101E800050E0BE016F5F7F4F0E949E0D0F90DF916B
:101E9000CF910895FC01DB0112968D919C911397CF
:101EA0009383828387E991E09183808314968C9158
:101EB0001497848315968C911597858316964D916A
:101EC0005D916D917C9119974683578360877187E7
:101ED0001A964D915D916D917C911D974287538724
:101EE000648775871E964D915D916D917C91519798
:101EF00046875787608B718B52968C915297828B55
:101F000053964D915D916D917C915697438B548B77
:101F1000658B768B57964D915D916D917C915A971B
:101F2000478B508F618F728F5B968D919C91948FB0
:101F3000838F08950895FC01818D928D009719F08B
:101F400061E00C94ED0C0895DC015996ED91FC9143
:101F50003097B9F083899489A589B68942855385DC
:101F600064857585841B950BA60BB70B811520E83E
:101F70009207A105B10538F08FEF9FE7A0E0B0E030
:101F8000089590E080E00895DC0159968D919C9130
:101F9000009739F0DC01ED91FC910480F581E02D92
:101FA000099490E080E00895CF93DF93EC01E98DF0
:101FB000FA8D309749F481E090E09B838A8390E02A
:101FC00080E0DF91CF91089513821282898D9A8DDE
:101FD0000E949E0DE98DFA8D22813381232B59F7C2
:101FE000F0CFCF93DF931F92CDB7DEB76983DC01CB
:101FF000ED91FC910280F381E02D41E050E0BE01C3
:102000006F5F7F4F09950F90DF91CF910895CF9328
:10201000DF931F92CDB7DEB741E050E0BE016F5FA6
:102020007F4F0E94E60B019731F4898190E00F9079
:10203000DF91CF9108958FEF9FEFF9CFFC01818D54
:10204000928D009711F00C9407108FEF9FEF089579
:102050000F931F93CF93DF93EC01898D9A8D10E03E
:1020600000E0009799F00E9407108C010F3F1007C5
:1020700069F0898D9A8DFC0142855385648575854B
:1020800041505109610971090E94520AC801DF914A
:10209000CF911F910F910895FC0101900020E9F765
:1020A0003197AF01481B590BBC0181EF93E00C94B1
:1020B000CA03CF93DF930E94B704EC018FE991E04C
:1020C0000E944C108C0F9D1FDF91CF910895CF93EC
:1020D000DF93D0E0C0E0009719F00E944C10EC01B3
:1020E0008FE991E00E944C108C0F9D1FDF91CF91E2
:1020F00008950F931F93CF93DF93EC0180E2689FC5
:10210000F0011124E151FE4F6A8B8091650190919D
:102110006601A0916701B09168018E879F87A88BA7
:10212000B98B0489158930E020E098011127002738
:102130000F8B188F298F3A8F828D938DB0E0A0E09E
:10214000AC01BD01402B512B622B732B4F8B588F51
:10215000698F7A8F83858871A9F4848D958DA68D7A
:10216000B78D8B8B9C8BAD8BBE8B81E08D8381E09B
:102170008C831E821F82188619861A861B861C86EF
:102180001D8603C0803131F080E0DF91CF911F9137
:102190000F9108959E012D5E3F4F8B8D9C8D0E9467
:1021A0009309882389F384E0E1CFAF92BF92CF9265
:1021B000DF92EF92FF920F931F93CF93DF93CDB7F0
:1021C000DEB72B970FB6F894DEBF0FBECDBF6C0104
:1021D000FE013196CE010C967F0120E22193E81793
:1021E000F907E1F7DA0120E037E09D91B92E992354
:1021F000A9F19E32B9F43A3091F480E02B960FB6F3
:10220000F894DEBF0FBECDBFDF91CF911F910F912C
:10221000FF90EF90DF90CF90BF90AF90089528E0AF
:102220003AE0E3CFE8E6F4E08491882321F03196A8
:102230009813FACFE2CF321700F38FED890F8E3566
:10224000E0F68FE9890F8A3118F440EEB42EB90E0A
:10225000F701E20FF11DB0822F5FC7CF8981803275
:1022600061F28B01FB01838D948DF601948F838F36
:10227000FB01168217821086118612861386148639
:102280001586F80182859385A485B585438954898F
:102290006589768984179507A607B70708F0ADCF3B
:1022A00025E0B695A795979587952A95D1F7F82FAC
:1022B000FF70AF2EF8018581823008F49ECFC801EF
:1022C0000E94071097FD99CFF80182859385A48518
:1022D000B5854F96A11DB11D82879387A487B587C9
:1022E000F0E2AF9EB001112461517E4F611571057E
:1022F00009F483CFFB018081882309F1853E19F41D
:10230000B11032C01EC04BE050E0C7010E940D2248
:10231000892B09F0B6CF6A2DC6012B960FB6F8941B
:10232000DEBF0FBECDBFDF91CF911F910F91FF9008
:10233000EF90DF90CF90BF90AF900C947910B110D8
:102340005CCFF601A28A8091650190916601A0910F
:102350006701B091680186879787A08BB18BFB01DD
:102360008081882309F449CFBB24B3948ACFCF93CB
:10237000DF93EC01898D9A8D009741F00E94910DB9
:10238000898D9A8D0E9484211A8E198EDF91CF91AA
:102390000895EF92FF920F931F93CF93DF93EC0179
:1023A0007B018A011B821A8288EE93E0A0E0B0E0F4
:1023B0008C839D83AE83BF8383E791E09983888379
:1023C0008DE190E00E94E8209A8F898F009779F044
:1023D0002DE1F701DC0101900D922A95E1F74CE027
:1023E00050E0B801CE010C960E944022188EDF9179
:1023F000CF911F910F91FF90EF900895CF92DF92B0
:10240000EF92FF920F931F93CF93DF93CDB7DEB779
:10241000C756D1090FB6F894DEBF0FBECDBF8C01F1
:102420007B01DB015996CD90DC90F60185818230ED
:1024300008F499C082859385A485B5858F71992705
:10244000AA27BB27892B8A2B8B2B09F08CC040E253
:1024500050E0BE016F5F7F4FC6010E94E60B8032E5
:1024600009F081C08981882309F47DC0853E79F314
:102470008E3269F38C8583FDEACF22961FAE1EAEA5
:10248000229787E991E09FAF8EAF24961FAE2497E5
:10249000BE016F5F7F4FE0E080E02EE2DB019D91A7
:1024A000BD019032A1F0883049F44BE550E04C0F6B
:1024B0005D1F4E0F511DDA012C93EF5F4BE550E08D
:1024C0004C0F5D1F4E0F511DDA019C93EF5F8F5F24
:1024D0008B3021F78BE590E08C0F9D1F8E0F911DA7
:1024E000FC011082D70159966D917C91AE01455A3D
:1024F0005F4FCE01CE960E94D510882309F1BE0110
:10250000625C7F4FCE0181960E944A0FAE01455A10
:102510005F4FBE016F5D7F4FC8010E94C911C801A6
:10252000C959DF4F0FB6F894DEBF0FBECDBFDF91A4
:10253000CF911F910F91FF90EF90DF90CF90089572
:10254000F8011382128288EE93E0A0E0B0E0848369
:102550009583A683B78383E791E091838083128E6E
:10256000118E1486DCCFD80113961C921E921297FE
:1025700088EE93E0A0E0B0E0F801E9CF2F923F921F
:102580004F925F926F927F928F929F92AF92BF9283
:10259000CF92DF92EF92FF920F931F93CF93DF932F
:1025A000CDB7DEB7C456D1090FB6F894DEBF0FBE63
:1025B000CDBF6C014B0119A218A287E991E09F8F52
:1025C0008E8F1BA21C821B829A8389831E825E01CE
:1025D0008EE1A80EB11CC5010E94FE098401FE0116
:1025E00031967F0135012F016FE270E0C8010E9432
:1025F0002522009709F459C0F80120812F3269F48F
:102600000F5F1F4F9E2D8F2D7301692E782E962DF3
:10261000872D3701E92EF82EE7CF801B8D3008F08B
:102620008CE0282E312CA101B801CE01885A9F4F91
:102630000E944022E8E5F0E0EC0FFD1FE20DF31DE3
:102640001082C7010E94910DF70185818823F1F066
:102650001EAE1DAE87E991E09CAF8BAF21961FAEF9
:10266000219710E000E0080D191DF801808181110B
:1026700024C0BE01655C7F4FC2010E944A0F42EA3E
:1026800051E0B201C6010E94C91135C0AE01485ADD
:102690005F4FB301C7010E94D5108823C9F2020D14
:1026A000131DC3010E94910DB2CF08191909B3017E
:1026B000CE01CB960E944A0FD6CF19A218A287E965
:1026C00091E09F8F8E8F1BA221968FAD2197811154
:1026D0002DC0F6011382128288EE93E0A0E0B0E0F4
:1026E00084839583A683B78383E791E09183808376
:1026F000128E118E1486C601CC59DF4F0FB6F89496
:10270000DEBF0FBECDBFDF91CF911F910F91FF9024
:10271000EF90DF90CF90BF90AF909F908F907F9081
:102720006F905F904F903F902F900895A801BE0149
:10273000655C7F4FC5010E94D510882351F2CE0100
:10274000CB960E94910DB501C2010E944A0FA801CB
:1027500098CFAF92BF92CF92DF92EF92FF920F93FA
:102760001F93CF93DF93CDB7DEB7C85AD1090FB609
:10277000F894DEBF0FBECDBF7C018B01D42EC52ED9
:10278000FC0180818F32C9F5B701C8010E94D51CB8
:1027900040E850E0B801CE0101960E94D51C62EAE3
:1027A00071E0CE0101960E94D01C6C01F12CE12C4D
:1027B000C114D10409F45BC0F3E1EF16F1040CF08D
:1027C00056C06BEA71E0C6010E943022892B69F085
:1027D0006AEA71E0C6010E943022892BC9F5E11432
:1027E000F10419F081E0E81AF10862EA71E090E082
:1027F00080E00E94D01C6C01DBCF62EA71E081E0D6
:1028000091E00E943022892B91F4FF92EF9286EAA8
:1028100091E09F938F93CF92DF921F930F930E942B
:102820004F220FB6F894DEBF0FBECDBFB1CFFF92DF
:10283000EF9281E091E09F938F9384EA91E09F93E0
:102840008F93CF92DF921F930F930E944F22E9CF75
:10285000F701EE0FFF1F81E890E08C0F9D1FE80F3E
:10286000F91FD182C082F70131967F01BECFF801F6
:102870001082E114F104B1F462EA71E0C801C855B4
:10288000DF4F0FB6F894DEBF0FBECDBFDF91CF9103
:102890001F910F91FF90EF90DF90CF90BF90AF907E
:1028A0000C9439225E01F1E8AF0EB11CD12CC12C81
:1028B00062EA71E0C8010E941A22F50161917191EA
:1028C0005F01C8010E941A22FFEFCF1ADF0AEC1441
:1028D000FD0471F7C855DF4F0FB6F894DEBF0FBE89
:1028E000CDBFDF91CF911F910F91FF90EF90DF90BF
:1028F000CF90BF90AF9008951F920F920FB60F9296
:1029000011242F933F938F939F93AF93BF93809105
:10291000E6019091E701A091E801B091E9013091C1
:10292000E50123E0230F2D3758F50196A11DB11DB8
:102930002093E5018093E6019093E701A093E801DD
:10294000B093E9018091EA019091EB01A091EC0133
:10295000B091ED010196A11DB11D8093EA01909304
:10296000EB01A093EC01B093ED01BF91AF919F916A
:102970008F913F912F910F900FBE0F901F90189540
:1029800026E8230F0296A11DB11DD2CF1F920F92F0
:102990000FB60F9211242F933F934F935F936F9332
:1029A0007F938F939F93AF93BF93EF93FF93809108
:1029B000D8019091D901A091DA01B091DB01892B66
:1029C0008A2B8B2BD1F19091D301E091D401F0911E
:1029D000D5018081892780838091D8019091D90188
:1029E000A091DA01B091DB01181619061A061B0630
:1029F0009CF48091D8019091D901A091DA01B09115
:102A0000DB010197A109B1098093D8019093D90105
:102A1000A093DA01B093DB01FF91EF91BF91AF91E9
:102A20009F918F917F916F915F914F913F912F91E6
:102A30000F900FBE0F901F901895809100010E947B
:102A40009E03EACF1F920F920FB60F9211242F937D
:102A50003F934F935F936F937F938F939F93AF9326
:102A6000BF93EF93FF9381EF93E00E944804FF919F
:102A7000EF91BF91AF919F918F917F916F915F91F6
:102A80004F913F912F910F900FBE0F901F9018956F
:102A90001F920F920FB60F9211242F938F939F9333
:102AA000EF93FF93E0910104F09102048081E091A3
:102AB0000704F091080482FD1BC0908180910A04F4
:102AC0008F5F8F7320910B04821741F0E0910A040D
:102AD000F0E0EF50FC4F958F80930A04FF91EF9147
:102AE0009F918F912F910F900FBE0F901F9018956F
:102AF0008081F4CFE1EFF3E01382128288EE93E05D
:102B0000A0E0B0E084839583A683B78385E891E055
:102B10009183808385EC90E09587848784EC90E0B6
:102B20009787868780EC90E0918B808B81EC90E09A
:102B3000938B828B82EC90E0958B848B86EC90E07B
:102B4000978B868B118E128E138E148EEEE8F4E026
:102B500080E580831182E0E9F4E015821682118617
:102B6000138682E090E0A0E0B0E084879587A68796
:102B7000B78713A215A614A687E991E093A782A7A9
:102B800017A60895CF93DF93CDB7DEB7C85BD140CA
:102B90000FB6F894DEBF0FBECDBF789484B58260C7
:102BA00084BD84B5816084BD85B5826085BD85B5F1
:102BB000816085BD80916E00816080936E0010926F
:102BC00081008091810082608093810080918100EA
:102BD000816080938100809180008160809380007B
:102BE0008091B10084608093B1008091B0008160D9
:102BF0008093B00080917A00846080937A00809105
:102C00007A00826080937A0080917A00816080935C
:102C10007A0080917A00806880937A001092C100D7
:102C2000E0910104F091020482E08083E091FD03D1
:102C3000F091FE031082E091FF03F091000480E127
:102C4000808310920904E0910504F091060486E067
:102C50008083E0910304F09104048081806180838B
:102C6000E0910304F0910404808188608083E09106
:102C70000304F0910404808180688083E091030460
:102C8000F091040480818F7D80838FE991E00E9420
:102C90004C108AE00E9485028091BF04882321F0B5
:102CA0008AEB94E00E94910D10929B04109299047B
:102CB00010929604109295048AE0809394040E94E6
:102CC0004A038B01809194040E94850261E0809107
:102CD00094040E94A402FFB6F8948091D20181115D
:102CE00024C0E6E9F4E08491EAEAF4E09491E82F64
:102CF000F0E0EE0FFF1FEE57FB4FA591B491EC9162
:102D0000E92321F461E08AE00E94A4028AE00E94A3
:102D100085028CB580618CBD8CB580648CBD8DE0E6
:102D20000E9485028BE00E9485028091D2018F5F14
:102D30008093D201FFBE82E580938E0410928F04AF
:102D400080918E0490918F040E942805AAE0FA2EAB
:102D50008FEF0E940305FA94F110FACF80E994E016
:102D60000E942B0520E030E0A90160E080E994E0BA
:102D70000E944105F82E80939A0421E08217A9F061
:102D80000E944A03601B710B613D774058F381E05C
:102D90008093950480E994E00E94F80487EB90E02A
:102DA0000E9459101092E40181C02AEA31E040E00B
:102DB00050E068E080E994E00E94410582FF2AC06B
:102DC000F0929B0480919B04C12CD12CE12CE0E477
:102DD000FE2E823019F0C12CD12C760120E030E09B
:102DE000A90167E380E994E00E944105A7019601EB
:102DF00069E280E994E00E94410580939A04882367
:102E0000D1F00E944A03601B710B613D774030F3A3
:102E100088E0BECFF4E0FF2E0E940A0580939A045A
:102E2000FA94F110F9CF8A3A11F082E0B1CF82E042
:102E300080939B04C7CF80919B048230D1F420E023
:102E400030E0A9016AE380E994E00E94410588230B
:102E500011F086E09DCF0E940A05807C803C19F429
:102E600083E080939B040E940A050E940A050E9449
:102E70000A0580E994E00E94F80480E580938E04BE
:102E800010928F0481E00E944707882309F499C0BB
:102E90008AEB94E00E94FE09882309F47FCF83EA3D
:102EA00090E00E94591081E08093E40185E00E9447
:102EB000850284EF90E00E9459108CED90E00E9412
:102EC0005910A1E8B1E0AC0FBD1F1C96C954DE4FEC
:102ED000B983A883C75BD14081EF93E00E942804A7
:102EE000892B09F461C0BE016F5F7E4F81EF93E0D3
:102EF0000E945603E1E0F1E0EC0FFD1F8E0F9F1FD3
:102F0000DC011C92CF010E946710CF5FDE4F8881E9
:102F1000C150D140882309F447C0833209F039C534
:102F200081E091E08C0F9D1F01967C010196F701D5
:102F300020812032D1F360E270E0C7010E94252297
:102F4000009749F0FC0111928F0180813196803207
:102F5000D9F3811102C010E000E06DEA71E0C70111
:102F60000E943022892BA1F58DE394E00E94591034
:102F700089E294E00E94591089EF93E00E94591071
:102F800082EE93E00E9459108BEC93E00E9459105E
:102F900084EB93E00E94591085E993E00E94591058
:102FA0008FE991E00E944C1080E090E0892B09F4B9
:102FB00093CF0E943404882309F48ECF0E9400002E
:102FC00080CF80E00E944707882309F4E7CE60CFD6
:102FD00062EB71E0C7010E943022892B69F48EE513
:102FE00093E00E9459108CE293E00E9459108BE00C
:102FF00093E00E945910D8CF6AEB71E0C7010E949C
:103000003022892B09F01BC18091E401811103C09A
:103010008EE892E0EECF44E650E00115110521F074
:10302000D8018C91811122C061E071E0CE0101963E
:103030000E94D51CBE016F5F7F4FCE0184569E4F0C
:103040000E94BE12CB54DE4FE881F981C55BD140AE
:10305000309719F08581811110C08AE792E00E94B3
:10306000B704CE0101960E9467109ECFBE016F5F2C
:103070007F4FC8010E94A913DDCF823008F494C0AD
:1030800086E592E00E94B704CE0101960E94671087
:1030900084E492E00E945910BE0164567E4FCE0136
:1030A0008F579E4F0E94FE116AE0862E912CA12C14
:1030B000B12C71E8E72EFF24F394EC0EFD1EB9E16C
:1030C000EB0EF11CC656DE4FE881F981CA59D1409A
:1030D000309709F4ACC08581882309F4A8C08230F8
:1030E00008F470C08DE392E00E94B704C954DE4F2B
:1030F00088819981C75BD1400E946710CE018F57AC
:103100009E4F0E94B711BE0164567E4FCE018F576D
:103110009F4F0E94FE11CD57DF4F88819981C35880
:10312000D040CD57DE4F99838883C358D140CB57C9
:10313000DF4F88819981AA81BB81C558D040CB5788
:10314000DE4F88839983AA83BB83C558D140C75774
:10315000DF4F88819981AA81BB81C958D040C75768
:10316000DE4F88839983AA83BB83C958D140A1E8E5
:10317000B0E0AC0FBD1F1C96C954DE4FE881F98149
:10318000C75BD1408D918193EE15FF05D9F7C656E7
:10319000DF4F88819981CA59D040C656DE4F998346
:1031A0008883CA59D1408ECF80E692E00E94B7044E
:1031B000CE0101960E946710CE0184569E4F0E9458
:1031C000B711F2CE85E392E00E94B704C656DE4FF7
:1031D000E881F981CA59D14020E030E0A901309757
:1031E00021F02389348945895689CF55DF4F1882CC
:1031F000C15AD04001E810E00C0F1D1F005E1F4FA8
:10320000CA01B901A50194010E94F91F605DF8018E
:1032100062938F01211531054105510589F73097DA
:1032200019F0CF010E944C108DE292E05DCFCE01EB
:1032300084569E4F0E94B7118AE192E0DACE6DEB80
:1032400071E0C7010E943022892B09F056C080919D
:10325000E401811103C08BEF91E0CBCE0115110584
:1032600021F0D8018C9181111CC062EA71E0CE017D
:1032700001960E943922BE016F5F7F4FCE018F57AA
:103280009F4F0E94BE12C656DF4FE881F981CA598E
:10329000D040309719F0858181110CC08DED91E0FF
:1032A000DECE44E650E0BE016F5F7F4FC8010E9452
:1032B000A913E1CF8230A8F0CE018F579F4F0E9413
:1032C000B71144E650E0BE016F5F7F4F81E091E0AF
:1032D0000E94D51C85EB91E00E94B70481E091E04B
:1032E000C2CE83EC91E00E94B704CE0101960E9409
:1032F0006710CE018F579F4F62CF60EC71E0C7011E
:103300000E943022892B19F48DEF92E0E5CF64EC16
:1033100071E0C7010E943022892B09F037C385EE86
:1033200092E00115110509F464CEF801808140E8AE
:1033300050E08F3241F5B801CE018F579F4F0E9468
:10334000D51C0091E40184E191E0002309F451CE01
:10335000BE016F577F4FCE018F579E4F0E94BE1206
:10336000C656DE4FE881F981CA59D140309719F02D
:10337000858181110FC08CE991E00E94B704CE01D4
:103380008F579F4F70CEBE016F577F4FC8010E946D
:10339000A913D7CF82E991E00E94B704CE018F57DD
:1033A0009F4F0E94671089E791E00E94591053E3F4
:1033B000252E51E0352ECE018F579E4F0E94A40F2F
:1033C000892B09F4E1C281EF93E00E9428047C017B
:1033D000892B49F081EF93E00E94060488E691E092
:1033E0000E945910BAC0BE016F5F7F4FCE018F5748
:1033F0009E4F0E94560318161906ECF6E1E0F0E025
:10340000EC0FFD1FE80FF91F10820197E1E0F0E0DB
:10341000EC0FFD1FE80FF91F80818D3009F4108239
:103420008981833241F2882331F269EC71E0CE0167
:1034300001960E94D01C5E01F4E6AF1AFEEFBF0AAF
:103440006501009729F124E0E216F10431F1DC0175
:1034500001962C912032D9F3FD0101900020E9F76B
:103460003297AE17BF0730F48081803219F431975C
:103470001182F7CF3FEFE31AF30AF501A193B1935D
:103480005F0169EC71E090E080E00E94D01CD9CF30
:10349000F2E0EF16F1040CF48ECFD601ED91FC9121
:1034A00011978081843509F03DC2B4E0EB16F10438
:1034B00009F081CFF601828193810E94CC1C2B01FF
:1034C0003C01D60116968D919C910E94CC1C20E067
:1034D00030E040E05FE30E9441200E94B4204B01B5
:1034E0005C0120E030E0A901C301B2010E94E320A9
:1034F00018166CF4C301B2010E94AD206B018091DB
:1035000000018530B9F5F101149117FF63C00E94E5
:103510004A036B017C010E944A036C197D098E09E4
:103520009F09681579058A059B0508F0F9C181EFA7
:1035300093E00E942804892B09F4EFC181EF93E006
:103540000E94060487E591E00E945910102F85E043
:103550000E949E03112309F42ECF85E00E949E0352
:10356000CE018F579E4F0E94B71184E391E0011165
:103570001BCD3FCD8F3F59F685E080930001F101CF
:1035800014911F3F09F4C3CF113009F4DFC048F094
:10359000123009F4FAC017FDBACF85E00E94850207
:1035A0001EC014BC15BC84B5826084BD85B5816025
:1035B00085BDE1E9F4E08491E82FF0E0EE0FFF1F14
:1035C000E858FB4F85919491E5EAF4E0849180936B
:1035D000D70110E085E00E948502112399F0712C3B
:1035E000612C60E072E18AE790E0A30196010E94FD
:1035F0001B20BA01A901415051096109710912301A
:1036000009F044C1F12CE12C60E072E18AE790E01E
:10361000A70196010E941B2029013A01BA01A901C4
:1036200041505109610971094F3F5105610571050B
:1036300009F00CF410C160E472E48FE090E0A7019F
:1036400096010E941B20BA01A9014150510961094C
:103650007109123009F0BCC082E04F3F510561058D
:10366000710509F00CF463C060E970ED83E090E04F
:10367000A70196010E941B20BA01A90141505109DE
:103680006109710983E04F3F51056105710509F03A
:103690000CF44DC068E478EE81E090E0A70196015B
:1036A0000E941B20BA01A901415051096109710909
:1036B00084E04F3F510561057105C9F1C4F164E231
:1036C00074EF80E090E0A70196010E941B20BA01F0
:1036D000A901415051096109710985E04F3F510528
:1036E0006105710521F118F162E17AE780E090E06F
:1036F000A70196010E941B20BA01A901415051095E
:103700006109710986E04F3F51056105710579F046
:1037100070F0B301A2018AE07595679557954795BA
:103720008A95D1F7415051096109710987E090915B
:10373000B100987F892B8093B100113009F4C5C086
:10374000123009F4D7C01111E2CE8CC01092800063
:103750001092810080918100886080938100809127
:103760008100816080938100E1E9F4E08491E82F99
:10377000F0E0EE0FFF1FE858FB4F85919491E5EACA
:10378000F4E084918093D60125CF1092B00010927E
:10379000B1008091B00082608093B0008091B10050
:1037A00081608093B100E1E9F4E08491E82FF0E0DA
:1037B000EE0FFF1FE858FB4F859194919093D50130
:1037C0008093D401E5EAF4E084918093D30102CFA1
:1037D0004F3F51056105710509F00CF455C068E4CF
:1037E00078EE81E090E0A70196010E941B20BA01CB
:1037F000A901415051096109710984E011116ECF8D
:1038000083E04F3F51056105710541F13CF162E1F3
:103810007AE780E090E0A70196010E941B20BA01A0
:10382000A901415051096109710984E04F3F5105D7
:103830006105710599F090F0B301A2019AE07595C8
:103840006795579547959A95D1F741505109610968
:10385000710985E003C081E0111169CF95B5987FAA
:10386000892B85BD47BD8FEF9FEFDC018093E00181
:103870009093E101A093E201B093E30180916E0087
:10388000826080936E0043CE82E0E6CF91E04115E6
:103890005105F1E06F0771057CF068E478EE81E096
:1038A00090E0A30196010E941B20BA01A90141509A
:1038B00051096109710993E0113009F03ECF8091FF
:1038C0008100887F892B80938100509389004093E9
:1038D00088008FEF9FEFDC018093DC019093DD0186
:1038E000A093DE01B093DF0180916F00826080932E
:1038F0006F000DCE4093B3008FEF9FEFDC018093FC
:10390000D8019093D901A093DA01B093DB018091A3
:103910007000826080937000FACD0E941503FBCD89
:1039200010E015CE843409F046CD12968D919C910D
:103930000E94CC1C20E030E040E05FE30E94412088
:103940000E94B4206B017C010E944A034B015C0180
:103950000E944A03681979098A099B096C157D053B
:103960008E059F0508F027CD81EF93E00E94280483
:10397000892B39F081EF93E00E94060486E491E000
:103980002FCD0E941503E4CF00E0E7CD8EEC92E04E
:1039900030CB8DEA92E02DCB662777270C94101D53
:1039A00049ED54E00E94E91C0895DC01FB014150FF
:1039B000504058F049F001900D920020C1F7E61BED
:1039C000F70B3197CF0108951C9201900020E9F781
:1039D000F6CFFA01A191B081009719F41097E1F0A8
:1039E000CD01DC01CD010D90002011F4C00113C008
:1039F000FB012191222319F02015D9F7F3CFFB0108
:103A00002191201519F41E92119606C02223C1F7A8
:103A10000D900020A1F7D001FA01A193B083089581
:103A2000B0E0A0E0E6E1FDE10C94B91F5C017B0190
:103A30006115710519F0DB018D939C9385010F5F72
:103A40001F4FF501D0818D2F90E00E94601E6C0108
:103A5000892BB9F5DD32B9F50F5F1F4FD5011196EE
:103A6000DC91C1E05801F1E0AF1AB10843E050E049
:103A700060E770E0C5010E94691E892B69F5680145
:103A800082E0C80ED11C45E050E06BE670E0C60154
:103A90000E94691E892B21F4680197E0C90ED11C90
:103AA000E114F10419F0D701CD92DC9260E070E0EE
:103AB00080E89FEFC111FFC060E070E080E89FE701
:103AC000FAC05801BBCFDB3229F485010E5F1F4FCE
:103AD000F501D181C0E0C6CF43E050E068E670E078
:103AE000C5010E94691E892BE9F0F80110E000E091
:103AF00020E030E0A9015F01B0ED8B2E8D0E89E052
:103B00008815C8F19C2E689491F88C2F8870C2FF9C
:103B100016C0811102C00F5F1F4F3196D501DC9195
:103B2000C92DE9CFE114F10429F00E5F1F4FF70111
:103B30001183008360E070E080EC9FE7BCC08823C5
:103B400011F001501109A5E0B0E00E94A81F9B01EF
:103B5000AC01220F331F441F551F280D311D411D7D
:103B6000511D283999E93907490799E15907A8F200
:103B7000C6609C2ED2CFAEEF8A1206C0C3FD3CC0F9
:103B80009C2E689493F8C9CFDF7DD534A9F5808148
:103B90008D3239F4C061DF011296818162E070E0FC
:103BA00006C0DF018B32C1F3119661E070E08053F3
:103BB0005D01A61AB70A8A30F8F4E0E8CE16ECE008
:103BC000DE065CF4B601660F771F660F771FC60E20
:103BD000D71ECC0CDD1CC80ED11C5D01FFEFAF1A47
:103BE000BF0A8C9180538A30A8F1C4FF03C0D194DE
:103BF000C194D1080C0D1D1DC1FF09C0E114F104D1
:103C000031F081E0A81AB108D701AD92BC92CA0187
:103C1000B9010E94861EC370C33009F490584B014D
:103C20005C0120E030E0A9010E94811E882309F494
:103C300040C0CFE9D0E017FF05C0119501951109EB
:103C4000C7E8D0E06E01B8E1CB1AD10880E2E82ED7
:103C5000F12C0FC0D501B1CFFE01259135914591D1
:103C600054910E191F09C501B4010E94E71E4B01B2
:103C70005C01D501C4010E151F0574F72497F59456
:103C8000E794CC16DD06A9F78A2F880F8B2F881FA3
:103C90008F3F49F020E030E0A901C501B4010E9446
:103CA000811E811106C082E290E09093DC04809333
:103CB000DB04C501B401CDB7DEB7ECE00C94D51F31
:103CC00091110C94541F803219F089508550C8F717
:103CD0000895FB01DC014150504088F08D91813402
:103CE0001CF08B350CF4805E659161341CF06B35F3
:103CF0000CF4605E861B611171F3990B0895881BAB
:103D0000FCCF0E94C31E08F481E00895E89409C026
:103D100097FB3EF490958095709561957F4F8F4FFE
:103D20009F4F9923A9F0F92F96E9BB279395F69514
:103D3000879577956795B795F111F8CFFAF4BB0F92
:103D400011F460FF1BC06F5F7F4F8F4F9F4F16C0F6
:103D5000882311F096E911C0772321F09EE8872F80
:103D6000762F05C0662371F096E8862F70E060E03C
:103D70002AF09A95660F771F881FDAF7880F9695B5
:103D8000879597F90895990F0008550FAA0BE0E859
:103D9000FEEF16161706E807F907C0F0121613060D
:103DA000E407F50798F0621B730B840B950B39F44D
:103DB0000A2661F0232B242B252B21F408950A26B3
:103DC00009F4A140A6958FEF811D811D08950E94E1
:103DD000FA1E0C946E1F0E94601F38F00E94671F2D
:103DE00020F0952311F00C94571F0C945D1F1124A3
:103DF0000C94A21F0E947F1F70F3959FC1F3950F33
:103E000050E0551F629FF001729FBB27F00DB11D5E
:103E1000639FAA27F00DB11DAA1F649F6627B00DEE
:103E2000A11D661F829F2227B00DA11D621F739FD7
:103E3000B00DA11D621F839FA00D611D221F749FE5
:103E40003327A00D611D231F849F600D211D822F2C
:103E5000762F6A2F11249F5750409AF0F1F0882353
:103E60004AF0EE0FFF1FBB1F661F771F881F915080
:103E70005040A9F79E3F510580F00C94571F0C94B9
:103E8000A21F5F3FE4F3983ED4F38695779567953C
:103E9000B795F795E7959F5FC1F7FE2B880F911DAA
:103EA0009695879597F9089599278827089597F902
:103EB0009F6780E870E060E008959FEF80EC0895D0
:103EC00000240A94161617061806090608950024F9
:103ED0000A9412161306140605060895092E039473
:103EE000000C11F4882352F0BB0F40F4BF2B11F4E7
:103EF00060FF04C06F5F7F4F8F4F9F4F089557FD46
:103F00009058440F551F59F05F3F71F04795880F47
:103F100097FB991F61F09F3F79F0879508951216DE
:103F200013061406551FF2CF4695F1DF08C016168A
:103F300017061806991FF1CF86957105610508943B
:103F40000895E894BB2766277727CB0197F9089552
:103F50000E94EA1FA59F900DB49F900DA49F800D15
:103F6000911D112408952F923F924F925F926F926C
:103F70007F928F929F92AF92BF92CF92DF92EF92F9
:103F8000FF920F931F93CF93DF93CDB7DEB7CA1B7A
:103F9000DB0B0FB6F894DEBF0FBECDBF09942A88A5
:103FA000398848885F846E847D848C849B84AA844D
:103FB000B984C884DF80EE80FD800C811B81AA81DA
:103FC000B981CE0FD11D0FB6F894DEBF0FBECDBFA5
:103FD000ED010895A29FB001B39FC001A39F700D92
:103FE000811D1124911DB29F700D811D1124911D01
:103FF0000895A1E21A2EAA1BBB1BFD010DC0AA1F2A
:10400000BB1FEE1FFF1FA217B307E407F50720F041
:10401000A21BB30BE40BF50B661F771F881F991FBC
:104020001A9469F760957095809590959B01AC0105
:10403000BD01CF010895052E97FB1EF400940E9448
:10404000322057FD07D00E94F91F07FC03D04EF421
:104050000C94322050954095309521953F4F4F4F0D
:104060005F4F089590958095709561957F4F8F4F24
:104070009F4F0895EE0FFF1F0590F491E02D0994D6
:104080005058BB27AA270E9458200C946E1F0E94EC
:10409000601F38F00E94671F20F039F49F3F19F429
:1040A00026F40C945D1F0EF4E095E7FB0C94571F6B
:1040B000E92F0E947F1F58F3BA176207730784071E
:1040C000950720F079F4A6F50C94A11F0EF4E09565
:1040D0000B2EBA2FA02D0B01B90190010C01CA01C2
:1040E000A0011124FF27591B99F0593F50F4503E6D
:1040F00068F11A16F040A22F232F342F4427585F5F
:10410000F3CF469537952795A795F0405395C9F776
:104110007EF41F16BA0B620B730B840BBAF091502E
:10412000A1F0FF0FBB1F661F771F881FC2F70EC0CD
:10413000BA0F621F731F841F48F4879577956795A0
:10414000B795F7959E3F08F0B0CF9395880F08F08C
:104150009927EE0F9795879508950E94B42068944B
:10416000B1110C94A21F08950E94871F88F09F57D9
:1041700098F0B92F9927B751B0F0E1F0660F771F8B
:10418000881F991F1AF0BA95C9F714C0B13091F081
:104190000E94A11FB1E008950C94A11F672F782FF2
:1041A0008827B85F39F0B93FCCF386957795679546
:1041B000B395D9F73EF490958095709561957F4FB2
:1041C0008F4F9F4F08950E94C31E08F48FEF0895EC
:1041D0000F931F93CF93DF938230910510F482E009
:1041E00090E0E091DF04F091E00430E020E0B0E006
:1041F000A0E0309799F42115310509F44AC0281B35
:10420000390B24303105D8F58A819B816115710500
:1042100089F1FB0193838283FE0111C040815181AA
:104220000281138148175907E0F04817590799F49C
:10423000109761F012960C93129713961C93329676
:10424000CF01DF91CF911F910F9108950093DF046B
:104250001093E004F4CF2115310551F042175307B4
:1042600038F0A901DB019A01BD01DF01F801C1CFDE
:10427000EF01F9CF9093E0048093DF04CDCFFE01EE
:10428000E20FF31F819391932250310939832883E0
:10429000D7CF2091DD043091DE04232B41F420910F
:1042A0006B0130916C013093DE042093DD0420918A
:1042B000690130916A012115310541F42DB73EB7EE
:1042C00040916D0150916E01241B350BE091DD048E
:1042D000F091DE04E217F307A0F42E1B3F0B281722
:1042E000390778F0AC014E5F5F4F2417350748F06F
:1042F0004E0F5F1F5093DE044093DD048193919332
:104300009FCFF0E0E0E09CCFCF93DF930097E9F000
:10431000FC01329713821282A091DF04B091E00475
:10432000ED0130E020E01097A1F420813181820F6F
:10433000931F2091DD043091DE042817390709F01E
:1043400061C0F093DE04E093DD04DF91CF91089526
:10435000EA01CE17DF07E8F54A815B819E0141152E
:104360005105B1F7E901FB83EA8349915991C40FE3
:10437000D51FEC17FD0761F4808191810296840FAF
:10438000951FE90199838883828193819B838A8326
:10439000F0E0E0E012968D919C9113970097B9F5AB
:1043A0002D913C911197CD010296820F931F209180
:1043B000DD043091DE042817390739F6309751F5BE
:1043C0001092E0041092DF04B093DE04A093DD04A9
:1043D000BCCFD383C28340815181840F951FC817FE
:1043E000D90761F44E5F5F4F88819981480F591F4B
:1043F000518340838A819B81938382832115310578
:1044000009F0B0CFF093E004E093DF049ECFFD010C
:10441000DC01C0CF13821282D7CFFB01DC0104C0C4
:104420008D910190801921F441505040C8F7881BAC
:10443000990B0895FB01DC010D900020E9F711971D
:1044400001900D920020E1F70895FC0181918617FB
:1044500021F08823D9F7992708953197CF0108953E
:10446000FB01DC018D91019080190110D9F3990BAA
:104470000895FB01DC0101900D920020E1F7089501
:10448000FB01DC014150504048F001900D920020AA
:10449000C9F701C01D9241505040E0F70895AEE0C9
:1044A000B0E0E5E5F2E20C94C11F0D891E898F8909
:1044B000988D26E02C831A83098397FF02C080E041
:1044C00090E801979E838D83AE01455E5F4F698DB5
:1044D0007A8DCE0101960E947F224D815E8157FD2B
:1044E0000AC02F813885421753070CF49A01020F36
:1044F000131FF80110822E96E4E00C94DD1FABE050
:10450000B0E0E5E8F2E20C94B31F7C013B018A01C4
:10451000FC0117821682838181FFC8C1CE010196FA
:104520005C01F7019381F30193FD859193FF8191E4
:104530003F01882309F453C1853239F493FD8591F5
:1045400093FF81913F01853229F4B70190E00E94E9
:104550006F24E7CF912C212C312CFFE1F31538F09B
:104560008B3211F190F4803209F1833229F137FC5A
:104570003CC020ED280F2A3050F536FE20C08AE0DE
:10458000989E200D1124922E06C08D3291F080331A
:1045900071F7689430F8F30193FD859193FF819151
:1045A0003F018111DACF21C0689431F8689432F864
:1045B000F2CF689433F8EFCF689434F8ECCFEAE0A8
:1045C0002E9E200D1124222E689435F8E4CF8E32D1
:1045D00029F436FC04C1689436F8DDCF8C3619F422
:1045E000689437F8D8CF8836B1F2982F9F7D9554CC
:1045F0009330E0F08336A1F18337C1F1833509F0C0
:1046000063C02801F2E04F0E511CF801C080D18038
:10461000692D70E036FC02C06FEF7FEFC6010E948B
:1046200059244C01689437F882010AC00C5F1F4F6F
:10463000FFE3F98388248394912C6501E89437F88B
:1046400033FE2DC0522C8114910471F5552009F4CC
:1046500068CFB70180E290E00E946F245A94F6CFB1
:10466000F801808189830E5F1F4FE4CF2801F2E0BB
:104670004F0E511CF801C080D180692D70E036FCCE
:1046800002C06FEF7FEFC6010E9464244C018201DB
:10469000D5CFB70180E290E00E946F242A942814BD
:1046A000190409F0B0F7CECFF60137FC859137FE3B
:1046B00081916F01B70190E00E946F2451105A94CC
:1046C000F1E08F1A9108BFCF843619F0893609F0CE
:1046D00077C0F80137FE6BC0608171818281938160
:1046E0000C5F1F4FF32DFF763F2E97FF09C090956B
:1046F0008095709561957F4F8F4F9F4F689437F8E5
:104700002AE030E0A5010E949F24C82ECA188C2CF4
:10471000432C36FE0CC0E89440F8C91440F434FE33
:1047200005C032FC03C0F32DFE7E4F2E892C44FEC3
:1047300095C0FE01EC0DF11D8081803309F087C02A
:10474000242D297E422E842D8870582E43FC95C03E
:1047500040FE8FC09C2C821418F42C0C922C9818BC
:1047600044FE91C0B70180E390E00E946F2442FEB6
:1047700009C088E790E041FE02C088E590E0B701FB
:104780000E946F24C91408F48AC0CA94D12C9FEFE8
:10479000C91AD90ACA0CDB1CF60182916F01B70154
:1047A00090E00E946F24AC14BD04B1F74FCF60813C
:1047B0007181072E000C880B990B0E5F1F4F92CF53
:1047C000D32CE894D4F82AE030E0853739F1232D52
:1047D000297FD22E8F3601F148F48835A9F0F701F0
:1047E000868197812B96E2E10C94CF1F803749F0A8
:1047F0008837A9F7D4FE02C06894D2F820E130E0EF
:104800000DC06894D4F8F6CF34FE03C0822F8660C2
:10481000D82E20E132E002C028E030E0F801D7FED7
:104820000FC060817181828193810C5F1F4FA50150
:104830000E949F24C82ECA183D2CE89437F867CFF1
:104840006081718190E080E00E5F1F4FF0CF42FCED
:1048500002C0839478CF8394839475CF842D867817
:1048600009F471CFF6CFB70180E290E00E946F2487
:1048700083948214C0F3512C73CF522C5818821495
:1048800008F46ECFF8CF842D867809F47BCF8BE2C5
:1048900041FE80E247FC8DE2B70190E071CFB701A5
:1048A00080E390E00E946F249A946CCF8FEF9FEF8B
:1048B00099CFFC010590615070400110D8F78095A8
:1048C00090958E0F9F1F0895FC01615070400190DC
:1048D0000110D8F7809590958E0F9F1F08950F9324
:1048E0001F93CF93DF93182F092FEB018B8181FD4D
:1048F00009C01FEF0FEF812F902FDF91CF911F91F4
:104900000F91089582FF14C02E813F818C819D817B
:10491000281739073CF4E881F981CF010196998382
:10492000888310838E819F8101969F838E83E3CF3E
:10493000E885F985812F0995892BA1F3DACFFA0152
:10494000AA27283051F1203181F1E8946F936E7FCE
:104950006E5F7F4F8F4F9F4FAF4FB1E03ED0B4E0BF
:104960003CD0670F781F891F9A1FA11D680F791F00
:104970008A1F911DA11D6A0F711D811D911DA11D11
:1049800020D009F468943F912AE0269F1124301921
:10499000305D3193DEF6CF010895462F4770405DBC
:1049A0004193B3E00FD0C9F7F6CF462F4F70405D6B
:1049B0004A3318F0495D31FD4052419302D0A9F7C6
:1049C000EACFB4E0A6959795879577956795BA95C0
:1049D000C9F700976105710508959B01AC010A2E86
:1049E00006945795479537952795BA95C9F7620F5D
:0E49F000731F841F951FA01D0895F894FFCF1C
:1049FE00FF2F00000000000000000000000000007B
:104A0E000000000000000000000000000000000098
:104A1E000000000000000000000000000000000088
:104A2E000000000000000000000000000000000078
:104A3E000000000000000000000000000000000068
:104A4E000000000000000000000000000000000058
:104A5E000000000000FFFFFFFF0000E104800000E7
:104A6E00000000F10FD40FC40F9B0FA40F1E1028CF
:104A7E0010000000006A04CA03F703D204280406DB
:104A8E00041A0400000000390FCA03330D9A0F0DEB
:104A9E000A002F0025732F2573002E2E0068656CDB
:104AAE007000636F6E76657274006C7300636400E1
:0C4ABE0070776400706C6179002C0000BF
:00000001FF
